{
  "contractName": "Bank",
  "abi": [
    {
      "inputs": [
        {
          "internalType": "contract IERC20",
          "name": "_tokenV1",
          "type": "address"
        },
        {
          "internalType": "contract IERC20",
          "name": "_tokenV2",
          "type": "address"
        },
        {
          "internalType": "uint256",
          "name": "_rate",
          "type": "uint256"
        }
      ],
      "stateMutability": "nonpayable",
      "type": "constructor"
    },
    {
      "inputs": [
        {
          "internalType": "address",
          "name": "",
          "type": "address"
        }
      ],
      "name": "balanceV2",
      "outputs": [
        {
          "internalType": "uint256",
          "name": "",
          "type": "uint256"
        }
      ],
      "stateMutability": "view",
      "type": "function",
      "constant": true
    },
    {
      "inputs": [
        {
          "internalType": "address",
          "name": "",
          "type": "address"
        }
      ],
      "name": "claimReady",
      "outputs": [
        {
          "internalType": "uint256",
          "name": "",
          "type": "uint256"
        }
      ],
      "stateMutability": "view",
      "type": "function",
      "constant": true
    },
    {
      "inputs": [],
      "name": "cooldownTime",
      "outputs": [
        {
          "internalType": "uint256",
          "name": "",
          "type": "uint256"
        }
      ],
      "stateMutability": "view",
      "type": "function",
      "constant": true
    },
    {
      "inputs": [],
      "name": "name",
      "outputs": [
        {
          "internalType": "string",
          "name": "",
          "type": "string"
        }
      ],
      "stateMutability": "view",
      "type": "function",
      "constant": true
    },
    {
      "inputs": [],
      "name": "owner",
      "outputs": [
        {
          "internalType": "address",
          "name": "",
          "type": "address"
        }
      ],
      "stateMutability": "view",
      "type": "function",
      "constant": true
    },
    {
      "inputs": [],
      "name": "rate",
      "outputs": [
        {
          "internalType": "uint256",
          "name": "",
          "type": "uint256"
        }
      ],
      "stateMutability": "view",
      "type": "function",
      "constant": true
    },
    {
      "inputs": [],
      "name": "supplyLimit",
      "outputs": [
        {
          "internalType": "uint256",
          "name": "",
          "type": "uint256"
        }
      ],
      "stateMutability": "view",
      "type": "function",
      "constant": true
    },
    {
      "inputs": [],
      "name": "tokenV1",
      "outputs": [
        {
          "internalType": "contract IERC20",
          "name": "",
          "type": "address"
        }
      ],
      "stateMutability": "view",
      "type": "function",
      "constant": true
    },
    {
      "inputs": [],
      "name": "tokenV2",
      "outputs": [
        {
          "internalType": "contract IERC20",
          "name": "",
          "type": "address"
        }
      ],
      "stateMutability": "view",
      "type": "function",
      "constant": true
    },
    {
      "inputs": [
        {
          "internalType": "address",
          "name": "",
          "type": "address"
        }
      ],
      "name": "tokensSwapped",
      "outputs": [
        {
          "internalType": "uint256",
          "name": "",
          "type": "uint256"
        }
      ],
      "stateMutability": "view",
      "type": "function",
      "constant": true
    },
    {
      "inputs": [
        {
          "internalType": "address",
          "name": "",
          "type": "address"
        }
      ],
      "name": "whitelist",
      "outputs": [
        {
          "internalType": "bool",
          "name": "",
          "type": "bool"
        }
      ],
      "stateMutability": "view",
      "type": "function",
      "constant": true
    },
    {
      "inputs": [
        {
          "internalType": "contract IERC20",
          "name": "_tokenV1",
          "type": "address"
        },
        {
          "internalType": "contract IERC20",
          "name": "_tokenV2",
          "type": "address"
        }
      ],
      "name": "setTokens",
      "outputs": [],
      "stateMutability": "nonpayable",
      "type": "function"
    },
    {
      "inputs": [
        {
          "internalType": "uint256",
          "name": "_rate",
          "type": "uint256"
        }
      ],
      "name": "setRate",
      "outputs": [],
      "stateMutability": "nonpayable",
      "type": "function"
    },
    {
      "inputs": [
        {
          "internalType": "uint256",
          "name": "_cooldownTime",
          "type": "uint256"
        }
      ],
      "name": "setCooldownTime",
      "outputs": [],
      "stateMutability": "nonpayable",
      "type": "function"
    },
    {
      "inputs": [
        {
          "internalType": "uint256",
          "name": "_amount",
          "type": "uint256"
        }
      ],
      "name": "swapVersions",
      "outputs": [],
      "stateMutability": "nonpayable",
      "type": "function"
    },
    {
      "inputs": [],
      "name": "releaseTokens",
      "outputs": [],
      "stateMutability": "nonpayable",
      "type": "function"
    },
    {
      "inputs": [],
      "name": "claimV1",
      "outputs": [],
      "stateMutability": "nonpayable",
      "type": "function"
    },
    {
      "inputs": [
        {
          "internalType": "address",
          "name": "_owner",
          "type": "address"
        }
      ],
      "name": "setOwner",
      "outputs": [],
      "stateMutability": "nonpayable",
      "type": "function"
    },
    {
      "inputs": [
        {
          "internalType": "address[]",
          "name": "_investor",
          "type": "address[]"
        }
      ],
      "name": "addToWhitelist",
      "outputs": [],
      "stateMutability": "nonpayable",
      "type": "function"
    },
    {
      "inputs": [
        {
          "internalType": "address[]",
          "name": "_investor",
          "type": "address[]"
        }
      ],
      "name": "deleteFromWhitelist",
      "outputs": [],
      "stateMutability": "nonpayable",
      "type": "function"
    },
    {
      "inputs": [
        {
          "internalType": "uint256",
          "name": "_supplyLimit",
          "type": "uint256"
        }
      ],
      "name": "setSupplyLimit",
      "outputs": [],
      "stateMutability": "nonpayable",
      "type": "function"
    }
  ],
  "bytecode": "0x60806040526040518060400160405280600481526020017f42616e6b00000000000000000000000000000000000000000000000000000000815250600090805190602001906200005192919062000198565b5060c8600555603c6006556000600b60006101000a81548160ff0219169083151502179055506000600b60016101000a81548160ff0219169083151502179055503480156200009f57600080fd5b5060405162002efa38038062002efa8339818101604052810190620000c5919062000276565b82600260006101000a81548173ffffffffffffffffffffffffffffffffffffffff021916908373ffffffffffffffffffffffffffffffffffffffff16021790555081600360006101000a81548173ffffffffffffffffffffffffffffffffffffffff021916908373ffffffffffffffffffffffffffffffffffffffff1602179055508060048190555033600160006101000a81548173ffffffffffffffffffffffffffffffffffffffff021916908373ffffffffffffffffffffffffffffffffffffffff160217905550505050620003c2565b828054620001a69062000324565b90600052602060002090601f016020900481019282620001ca576000855562000216565b82601f10620001e557805160ff191683800117855562000216565b8280016001018555821562000216579182015b8281111562000215578251825591602001919060010190620001f8565b5b50905062000225919062000229565b5090565b5b80821115620002445760008160009055506001016200022a565b5090565b60008151905062000259816200038e565b92915050565b6000815190506200027081620003a8565b92915050565b60008060006060848603121562000292576200029162000389565b5b6000620002a28682870162000248565b9350506020620002b58682870162000248565b9250506040620002c8868287016200025f565b9150509250925092565b6000620002df82620002fa565b9050919050565b6000620002f382620002d2565b9050919050565b600073ffffffffffffffffffffffffffffffffffffffff82169050919050565b6000819050919050565b600060028204905060018216806200033d57607f821691505b602082108114156200035457620003536200035a565b5b50919050565b7f4e487b7100000000000000000000000000000000000000000000000000000000600052602260045260246000fd5b600080fd5b6200039981620002e6565b8114620003a557600080fd5b50565b620003b3816200031a565b8114620003bf57600080fd5b50565b612b2880620003d26000396000f3fe608060405234801561001057600080fd5b50600436106101375760003560e01c80636ff73201116100b8578063a96f86681161007c578063a96f866814610302578063b319c6b71461030c578063cbc7854e1461032a578063cc15fce714610346578063ea4dbf2214610362578063ed5f33481461039257610137565b80636ff732011461025e5780637f6497831461027a57806383b25b89146102965780638da5cb5b146102b45780639b19251a146102d257610137565b806327e5f93f116100ff57806327e5f93f146101e25780632c4e722e146101ec57806334fcf4371461020a578063361fab25146102265780635b7185601461024257610137565b806306fdde031461013c5780631382d8c21461015a57806313af40351461017857806319d1997a1461019457806322f823e2146101b2575b600080fd5b6101446103c2565b604051610151919061220c565b60405180910390f35b610162610450565b60405161016f91906121f1565b60405180910390f35b610192600480360381019061018d9190611e28565b610476565b005b61019c6105ba565b6040516101a9919061238e565b60405180910390f35b6101cc60048036038101906101c79190611e28565b6105c0565b6040516101d9919061238e565b60405180910390f35b6101ea6105d8565b005b6101f461082f565b604051610201919061238e565b60405180910390f35b610224600480360381019061021f9190611f0b565b610835565b005b610240600480360381019061023b9190611f0b565b6108cf565b005b61025c60048036038101906102579190611f0b565b610969565b005b61027860048036038101906102739190611f0b565b6110a7565b005b610294600480360381019061028f9190611e55565b611141565b005b61029e6112f6565b6040516102ab91906121f1565b60405180910390f35b6102bc61131c565b6040516102c9919061215b565b60405180910390f35b6102ec60048036038101906102e79190611e28565b611342565b6040516102f991906121d6565b60405180910390f35b61030a611362565b005b6103146118ae565b604051610321919061238e565b60405180910390f35b610344600480360381019061033f9190611ecb565b6118b4565b005b610360600480360381019061035b9190611e55565b6119ca565b005b61037c60048036038101906103779190611e28565b611b7f565b604051610389919061238e565b60405180910390f35b6103ac60048036038101906103a79190611e28565b611b97565b6040516103b9919061238e565b60405180910390f35b600080546103cf906125dc565b80601f01602080910402602001604051908101604052809291908181526020018280546103fb906125dc565b80156104485780601f1061041d57610100808354040283529160200191610448565b820191906000526020600020905b81548152906001019060200180831161042b57829003601f168201915b505050505081565b600360009054906101000a900473ffffffffffffffffffffffffffffffffffffffff1681565b600160009054906101000a900473ffffffffffffffffffffffffffffffffffffffff1673ffffffffffffffffffffffffffffffffffffffff163373ffffffffffffffffffffffffffffffffffffffff1614610506576040517f08c379a00000000000000000000000000000000000000000000000000000000081526004016104fd9061230e565b60405180910390fd5b600073ffffffffffffffffffffffffffffffffffffffff168173ffffffffffffffffffffffffffffffffffffffff161415610576576040517f08c379a000000000000000000000000000000000000000000000000000000000815260040161056d9061232e565b60405180910390fd5b80600160006101000a81548173ffffffffffffffffffffffffffffffffffffffff021916908373ffffffffffffffffffffffffffffffffffffffff16021790555050565b60055481565b60096020528060005260406000206000915090505481565b600160009054906101000a900473ffffffffffffffffffffffffffffffffffffffff1673ffffffffffffffffffffffffffffffffffffffff163373ffffffffffffffffffffffffffffffffffffffff1614610668576040517f08c379a000000000000000000000000000000000000000000000000000000000815260040161065f9061230e565b60405180910390fd5b6000600260009054906101000a900473ffffffffffffffffffffffffffffffffffffffff1673ffffffffffffffffffffffffffffffffffffffff166370a08231306040518263ffffffff1660e01b81526004016106c5919061215b565b60206040518083038186803b1580156106dd57600080fd5b505afa1580156106f1573d6000803e3d6000fd5b505050506040513d601f19601f820116820180604052508101906107159190611f38565b90506000811161075a576040517f08c379a00000000000000000000000000000000000000000000000000000000081526004016107519061222e565b60405180910390fd5b600260009054906101000a900473ffffffffffffffffffffffffffffffffffffffff1673ffffffffffffffffffffffffffffffffffffffff1663a9059cbb600160009054906101000a900473ffffffffffffffffffffffffffffffffffffffff16836040518363ffffffff1660e01b81526004016107d99291906121ad565b602060405180830381600087803b1580156107f357600080fd5b505af1158015610807573d6000803e3d6000fd5b505050506040513d601f19601f8201168201806040525081019061082b9190611e9e565b5050565b60045481565b600160009054906101000a900473ffffffffffffffffffffffffffffffffffffffff1673ffffffffffffffffffffffffffffffffffffffff163373ffffffffffffffffffffffffffffffffffffffff16146108c5576040517f08c379a00000000000000000000000000000000000000000000000000000000081526004016108bc9061230e565b60405180910390fd5b8060048190555050565b600160009054906101000a900473ffffffffffffffffffffffffffffffffffffffff1673ffffffffffffffffffffffffffffffffffffffff163373ffffffffffffffffffffffffffffffffffffffff161461095f576040517f08c379a00000000000000000000000000000000000000000000000000000000081526004016109569061230e565b60405180910390fd5b8060058190555050565b600081116109ac576040517f08c379a00000000000000000000000000000000000000000000000000000000081526004016109a3906122ce565b60405180910390fd5b600033905060011515600a60008373ffffffffffffffffffffffffffffffffffffffff1673ffffffffffffffffffffffffffffffffffffffff16815260200190815260200160002060009054906101000a900460ff16151514610a44576040517f08c379a0000000000000000000000000000000000000000000000000000000008152600401610a3b9061234e565b60405180910390fd5b60001515600b60009054906101000a900460ff16151514610a9a576040517f08c379a0000000000000000000000000000000000000000000000000000000008152600401610a919061226e565b60405180910390fd5b6001600b60006101000a81548160ff0219169083151502179055506000600260009054906101000a900473ffffffffffffffffffffffffffffffffffffffff1673ffffffffffffffffffffffffffffffffffffffff166370a08231306040518263ffffffff1660e01b8152600401610b12919061215b565b60206040518083038186803b158015610b2a57600080fd5b505afa158015610b3e573d6000803e3d6000fd5b505050506040513d601f19601f82011682018060405250810190610b629190611f38565b9050600260009054906101000a900473ffffffffffffffffffffffffffffffffffffffff1673ffffffffffffffffffffffffffffffffffffffff166323b872dd8330866040518463ffffffff1660e01b8152600401610bc393929190612176565b602060405180830381600087803b158015610bdd57600080fd5b505af1158015610bf1573d6000803e3d6000fd5b505050506040513d601f19601f82011682018060405250810190610c159190611e9e565b506000600260009054906101000a900473ffffffffffffffffffffffffffffffffffffffff1673ffffffffffffffffffffffffffffffffffffffff166370a08231306040518263ffffffff1660e01b8152600401610c73919061215b565b60206040518083038186803b158015610c8b57600080fd5b505afa158015610c9f573d6000803e3d6000fd5b505050506040513d601f19601f82011682018060405250810190610cc39190611f38565b9050818111610d07576040517f08c379a0000000000000000000000000000000000000000000000000000000008152600401610cfe906122ae565b60405180910390fd5b6000610db7600360009054906101000a900473ffffffffffffffffffffffffffffffffffffffff1673ffffffffffffffffffffffffffffffffffffffff166318160ddd6040518163ffffffff1660e01b815260040160206040518083038186803b158015610d7457600080fd5b505afa158015610d88573d6000803e3d6000fd5b505050506040513d601f19601f82011682018060405250810190610dac9190611f38565b600554612710611baf565b90506000610e73600260009054906101000a900473ffffffffffffffffffffffffffffffffffffffff1673ffffffffffffffffffffffffffffffffffffffff166370a08231876040518263ffffffff1660e01b8152600401610e19919061215b565b60206040518083038186803b158015610e3157600080fd5b505afa158015610e45573d6000803e3d6000fd5b505050506040513d601f19601f82011682018060405250810190610e699190611f38565b6004546064611baf565b9050600081600860008873ffffffffffffffffffffffffffffffffffffffff1673ffffffffffffffffffffffffffffffffffffffff16815260200190815260200160002054600360009054906101000a900473ffffffffffffffffffffffffffffffffffffffff1673ffffffffffffffffffffffffffffffffffffffff166370a08231896040518263ffffffff1660e01b8152600401610f13919061215b565b60206040518083038186803b158015610f2b57600080fd5b505afa158015610f3f573d6000803e3d6000fd5b505050506040513d601f19601f82011682018060405250810190610f639190611f38565b610f6d9190612416565b610f779190612416565b90506000838210610f9857610f9188600554612710611baf565b9050610fa9565b610fa6886004546064611baf565b90505b80600860008973ffffffffffffffffffffffffffffffffffffffff1673ffffffffffffffffffffffffffffffffffffffff1681526020019081526020016000206000828254610ff89190612416565b92505081905550600860008873ffffffffffffffffffffffffffffffffffffffff1673ffffffffffffffffffffffffffffffffffffffff16815260200190815260200160002054600960008973ffffffffffffffffffffffffffffffffffffffff1673ffffffffffffffffffffffffffffffffffffffff168152602001908152602001600020819055506000600b60006101000a81548160ff0219169083151502179055505050505050505050565b600160009054906101000a900473ffffffffffffffffffffffffffffffffffffffff1673ffffffffffffffffffffffffffffffffffffffff163373ffffffffffffffffffffffffffffffffffffffff1614611137576040517f08c379a000000000000000000000000000000000000000000000000000000000815260040161112e9061230e565b60405180910390fd5b8060068190555050565b600160009054906101000a900473ffffffffffffffffffffffffffffffffffffffff1673ffffffffffffffffffffffffffffffffffffffff163373ffffffffffffffffffffffffffffffffffffffff16146111d1576040517f08c379a00000000000000000000000000000000000000000000000000000000081526004016111c89061230e565b60405180910390fd5b60005b81518110156112f257600073ffffffffffffffffffffffffffffffffffffffff1682828151811061120857611207612746565b5b602002602001015173ffffffffffffffffffffffffffffffffffffffff161415611267576040517f08c379a000000000000000000000000000000000000000000000000000000000815260040161125e9061232e565b60405180910390fd5b600082828151811061127c5761127b612746565b5b602002602001015190506001600a60008373ffffffffffffffffffffffffffffffffffffffff1673ffffffffffffffffffffffffffffffffffffffff16815260200190815260200160002060006101000a81548160ff0219169083151502179055505080806112ea9061263f565b9150506111d4565b5050565b600260009054906101000a900473ffffffffffffffffffffffffffffffffffffffff1681565b600160009054906101000a900473ffffffffffffffffffffffffffffffffffffffff1681565b600a6020528060005260406000206000915054906101000a900460ff1681565b600033905060011515600a60008373ffffffffffffffffffffffffffffffffffffffff1673ffffffffffffffffffffffffffffffffffffffff16815260200190815260200160002060009054906101000a900460ff161515146113fa576040517f08c379a00000000000000000000000000000000000000000000000000000000081526004016113f19061234e565b60405180910390fd5b42600760008373ffffffffffffffffffffffffffffffffffffffff1673ffffffffffffffffffffffffffffffffffffffff16815260200190815260200160002054111561147c576040517f08c379a0000000000000000000000000000000000000000000000000000000008152600401611473906122ee565b60405180910390fd5b6000600960008373ffffffffffffffffffffffffffffffffffffffff1673ffffffffffffffffffffffffffffffffffffffff16815260200190815260200160002054116114fe576040517f08c379a00000000000000000000000000000000000000000000000000000000081526004016114f59061236e565b60405180910390fd5b600860008273ffffffffffffffffffffffffffffffffffffffff1673ffffffffffffffffffffffffffffffffffffffff16815260200190815260200160002054600360009054906101000a900473ffffffffffffffffffffffffffffffffffffffff1673ffffffffffffffffffffffffffffffffffffffff166370a08231306040518263ffffffff1660e01b8152600401611599919061215b565b60206040518083038186803b1580156115b157600080fd5b505afa1580156115c5573d6000803e3d6000fd5b505050506040513d601f19601f820116820180604052508101906115e99190611f38565b101561162a576040517f08c379a00000000000000000000000000000000000000000000000000000000081526004016116219061228e565b60405180910390fd5b60001515600b60019054906101000a900460ff16151514611680576040517f08c379a00000000000000000000000000000000000000000000000000000000081526004016116779061224e565b60405180910390fd5b6001600b60016101000a81548160ff0219169083151502179055506000600860008373ffffffffffffffffffffffffffffffffffffffff1673ffffffffffffffffffffffffffffffffffffffff16815260200190815260200160002054111561184a576000611733600960008473ffffffffffffffffffffffffffffffffffffffff1673ffffffffffffffffffffffffffffffffffffffff168152602001908152602001600020546109c4612710611baf565b905061173e82611ccd565b600360009054906101000a900473ffffffffffffffffffffffffffffffffffffffff1673ffffffffffffffffffffffffffffffffffffffff1663a9059cbb83836040518363ffffffff1660e01b815260040161179b9291906121ad565b602060405180830381600087803b1580156117b557600080fd5b505af11580156117c9573d6000803e3d6000fd5b505050506040513d601f19601f820116820180604052508101906117ed9190611e9e565b5080600860008473ffffffffffffffffffffffffffffffffffffffff1673ffffffffffffffffffffffffffffffffffffffff168152602001908152602001600020600082825461183d91906124f7565b9250508190555050611890565b6000600960008373ffffffffffffffffffffffffffffffffffffffff1673ffffffffffffffffffffffffffffffffffffffff168152602001908152602001600020819055505b6000600b60016101000a81548160ff02191690831515021790555050565b60065481565b600160009054906101000a900473ffffffffffffffffffffffffffffffffffffffff1673ffffffffffffffffffffffffffffffffffffffff163373ffffffffffffffffffffffffffffffffffffffff1614611944576040517f08c379a000000000000000000000000000000000000000000000000000000000815260040161193b9061230e565b60405180910390fd5b81600260006101000a81548173ffffffffffffffffffffffffffffffffffffffff021916908373ffffffffffffffffffffffffffffffffffffffff16021790555080600360006101000a81548173ffffffffffffffffffffffffffffffffffffffff021916908373ffffffffffffffffffffffffffffffffffffffff1602179055505050565b600160009054906101000a900473ffffffffffffffffffffffffffffffffffffffff1673ffffffffffffffffffffffffffffffffffffffff163373ffffffffffffffffffffffffffffffffffffffff1614611a5a576040517f08c379a0000000000000000000000000000000000000000000000000000000008152600401611a519061230e565b60405180910390fd5b60005b8151811015611b7b57600073ffffffffffffffffffffffffffffffffffffffff16828281518110611a9157611a90612746565b5b602002602001015173ffffffffffffffffffffffffffffffffffffffff161415611af0576040517f08c379a0000000000000000000000000000000000000000000000000000000008152600401611ae79061232e565b60405180910390fd5b6000828281518110611b0557611b04612746565b5b602002602001015190506000600a60008373ffffffffffffffffffffffffffffffffffffffff1673ffffffffffffffffffffffffffffffffffffffff16815260200190815260200160002060006101000a81548160ff021916908315150217905550508080611b739061263f565b915050611a5d565b5050565b60076020528060005260406000206000915090505481565b60086020528060005260406000206000915090505481565b600080826fffffffffffffffffffffffffffffffff1685611bd0919061246c565b90506000836fffffffffffffffffffffffffffffffff1686611bf29190612688565b90506000846fffffffffffffffffffffffffffffffff1686611c14919061246c565b90506000856fffffffffffffffffffffffffffffffff1687611c369190612688565b9050856fffffffffffffffffffffffffffffffff168184611c57919061249d565b611c61919061246c565b8284611c6d919061249d565b8286611c79919061249d565b886fffffffffffffffffffffffffffffffff168588611c98919061249d565b611ca2919061249d565b611cac9190612416565b611cb69190612416565b611cc09190612416565b9450505050509392505050565b60065442611cdb9190612416565b600760008373ffffffffffffffffffffffffffffffffffffffff1673ffffffffffffffffffffffffffffffffffffffff1681526020019081526020016000208190555050565b6000611d34611d2f846123ce565b6123a9565b90508083825260208201905082856020860282011115611d5757611d566127a9565b5b60005b85811015611d875781611d6d8882611d91565b845260208401935060208301925050600181019050611d5a565b5050509392505050565b600081359050611da081612a96565b92915050565b600082601f830112611dbb57611dba6127a4565b5b8135611dcb848260208601611d21565b91505092915050565b600081519050611de381612aad565b92915050565b600081359050611df881612ac4565b92915050565b600081359050611e0d81612adb565b92915050565b600081519050611e2281612adb565b92915050565b600060208284031215611e3e57611e3d6127b3565b5b6000611e4c84828501611d91565b91505092915050565b600060208284031215611e6b57611e6a6127b3565b5b600082013567ffffffffffffffff811115611e8957611e886127ae565b5b611e9584828501611da6565b91505092915050565b600060208284031215611eb457611eb36127b3565b5b6000611ec284828501611dd4565b91505092915050565b60008060408385031215611ee257611ee16127b3565b5b6000611ef085828601611de9565b9250506020611f0185828601611de9565b9150509250929050565b600060208284031215611f2157611f206127b3565b5b6000611f2f84828501611dfe565b91505092915050565b600060208284031215611f4e57611f4d6127b3565b5b6000611f5c84828501611e13565b91505092915050565b611f6e8161252b565b82525050565b611f7d8161253d565b82525050565b611f8c81612585565b82525050565b6000611f9d826123fa565b611fa78185612405565b9350611fb78185602086016125a9565b611fc0816127b8565b840191505092915050565b6000611fd8601b83612405565b9150611fe3826127c9565b602082019050919050565b6000611ffb601883612405565b9150612006826127f2565b602082019050919050565b600061201e601783612405565b91506120298261281b565b602082019050919050565b6000612041602d83612405565b915061204c82612844565b604082019050919050565b6000612064601b83612405565b915061206f82612893565b602082019050919050565b6000612087603183612405565b9150612092826128bc565b604082019050919050565b60006120aa603d83612405565b91506120b58261290b565b604082019050919050565b60006120cd604083612405565b91506120d88261295a565b604082019050919050565b60006120f0602883612405565b91506120fb826129a9565b604082019050919050565b6000612113602e83612405565b915061211e826129f8565b604082019050919050565b6000612136602c83612405565b915061214182612a47565b604082019050919050565b6121558161257b565b82525050565b60006020820190506121706000830184611f65565b92915050565b600060608201905061218b6000830186611f65565b6121986020830185611f65565b6121a5604083018461214c565b949350505050565b60006040820190506121c26000830185611f65565b6121cf602083018461214c565b9392505050565b60006020820190506121eb6000830184611f74565b92915050565b60006020820190506122066000830184611f83565b92915050565b600060208201905081810360008301526122268184611f92565b905092915050565b6000602082019050818103600083015261224781611fcb565b9050919050565b6000602082019050818103600083015261226781611fee565b9050919050565b6000602082019050818103600083015261228781612011565b9050919050565b600060208201905081810360008301526122a781612034565b9050919050565b600060208201905081810360008301526122c781612057565b9050919050565b600060208201905081810360008301526122e78161207a565b9050919050565b600060208201905081810360008301526123078161209d565b9050919050565b60006020820190508181036000830152612327816120c0565b9050919050565b60006020820190508181036000830152612347816120e3565b9050919050565b6000602082019050818103600083015261236781612106565b9050919050565b6000602082019050818103600083015261238781612129565b9050919050565b60006020820190506123a3600083018461214c565b92915050565b60006123b36123c4565b90506123bf828261260e565b919050565b6000604051905090565b600067ffffffffffffffff8211156123e9576123e8612775565b5b602082029050602081019050919050565b600081519050919050565b600082825260208201905092915050565b60006124218261257b565b915061242c8361257b565b9250827fffffffffffffffffffffffffffffffffffffffffffffffffffffffffffffffff03821115612461576124606126b9565b5b828201905092915050565b60006124778261257b565b91506124828361257b565b925082612492576124916126e8565b5b828204905092915050565b60006124a88261257b565b91506124b38361257b565b9250817fffffffffffffffffffffffffffffffffffffffffffffffffffffffffffffffff04831182151516156124ec576124eb6126b9565b5b828202905092915050565b60006125028261257b565b915061250d8361257b565b9250828210156125205761251f6126b9565b5b828203905092915050565b60006125368261255b565b9050919050565b60008115159050919050565b60006125548261252b565b9050919050565b600073ffffffffffffffffffffffffffffffffffffffff82169050919050565b6000819050919050565b600061259082612597565b9050919050565b60006125a28261255b565b9050919050565b60005b838110156125c75780820151818401526020810190506125ac565b838111156125d6576000848401525b50505050565b600060028204905060018216806125f457607f821691505b6020821081141561260857612607612717565b5b50919050565b612617826127b8565b810181811067ffffffffffffffff8211171561263657612635612775565b5b80604052505050565b600061264a8261257b565b91507fffffffffffffffffffffffffffffffffffffffffffffffffffffffffffffffff82141561267d5761267c6126b9565b5b600182019050919050565b60006126938261257b565b915061269e8361257b565b9250826126ae576126ad6126e8565b5b828206905092915050565b7f4e487b7100000000000000000000000000000000000000000000000000000000600052601160045260246000fd5b7f4e487b7100000000000000000000000000000000000000000000000000000000600052601260045260246000fd5b7f4e487b7100000000000000000000000000000000000000000000000000000000600052602260045260246000fd5b7f4e487b7100000000000000000000000000000000000000000000000000000000600052603260045260246000fd5b7f4e487b7100000000000000000000000000000000000000000000000000000000600052604160045260246000fd5b600080fd5b600080fd5b600080fd5b600080fd5b6000601f19601f8301169050919050565b7f4e6f2068617920737566696369656e7465206c6971756964657a2e0000000000600082015250565b7f59612065737461732068616369656e646f20636c61696d2e0000000000000000600082015250565b7f59612065737461732068616369656e646f20737761702e000000000000000000600082015250565b7f4e6f2071756564616e20737566696369656e74657320546f6b656e735632206560008201527f6e2065737461206375656e746100000000000000000000000000000000000000602082015250565b7f4e6f2068617320656e766961646f206e696e67756e20746f6b656e0000000000600082015250565b7f4c612063616e7469646164207061726120686163657220656c2073776170206460008201527f65626520736572206d61796f7220612030000000000000000000000000000000602082015250565b7f4465626573206573706572617220312073656d616e61206465736465206c612060008201527f756c74696d612076657a20717565206869636973746520636c61696d2e000000602082015250565b7f5469656e6573207175652073657220656c206f776e65722064656c20636f6e7460008201527f7261746f207061726120656a65637574617220657374612066756e63696f6e2e602082015250565b7f446562657320696e74726f647563697220756e6120646972656363696f6e206360008201527f6f7272656374612e000000000000000000000000000000000000000000000000602082015250565b7f456c20696e766572736f7220646562652065737461722064656e74726f20646560008201527f206c612077686974656c6973742e000000000000000000000000000000000000602082015250565b7f44656265732074656e657220746f6b656e7320646973706f6e69626c6573207060008201527f61726120726574697261722e0000000000000000000000000000000000000000602082015250565b612a9f8161252b565b8114612aaa57600080fd5b50565b612ab68161253d565b8114612ac157600080fd5b50565b612acd81612549565b8114612ad857600080fd5b50565b612ae48161257b565b8114612aef57600080fd5b5056fea26469706673582212208768cacf87a84a47b98b6489a2971fe06ac8385b07d133d63af43b14549dcf3b64736f6c63430008060033",
  "immutableReferences": {},
  "source": "// SPDX-License-Identifier: MIT\r\n\r\npragma solidity ^0.8.6;\r\n\r\n// Interfaces\r\ninterface IERC20 {\r\n    function decimals() external view returns (uint256);\r\n    function totalSupply() external view returns (uint256);\r\n    function balanceOf(address account) external view returns (uint256);\r\n    function transfer(address recipient, uint256 amount) external returns (bool);\r\n    function allowance(address owner, address spender) external view returns (uint256);\r\n    function approve(address spender, uint256 amount) external returns (bool);\r\n    function transferFrom(address sender, address recipient, uint256 amount) external returns (bool);\r\n    event Transfer(address indexed from, address indexed to, uint256 value);\r\n    event Approval(address indexed owner, address indexed spender, uint256 value);\r\n}\r\n\r\ncontract Bank {\r\n    // Variables \r\n    string  public name = \"Bank\"; // Nombre del contrato.\r\n    address public owner; // Direccin del dueo del contrato.\r\n    IERC20 public tokenV1; // Contrato del TokenV1.\r\n    IERC20 public tokenV2; // Contrato del TokenV2.\r\n    uint public rate; // % de cuantos TokensV2 equivalen a 1 TokenV1.\r\n    uint public supplyLimit = 200; // % del lmite de supply de los TokensV2 para limitar al usuario. \r\n    uint public cooldownTime = 1 minutes; // Tiempo de cooldown que va a tener el claim.\r\n    mapping(address => uint) public claimReady; // Guarda el tiempo en el que el usuario podr hacer su prximo claim.\r\n    mapping(address => uint) public balanceV2; // Balance de los TokenV2 retirables en la DApp.\r\n    mapping(address => uint) public tokensSwapped; // Balance de los TokensV2 que se intercambiaron.\r\n    mapping(address => bool) public whitelist; // Control de whitelist.\r\n    bool private swapping = false; // Revisa si ya est haciendo swap antes de poder volver a hacer otro.\r\n    bool private claiming = false;// Revisa si ya est claimeando antes de poder volver a hacer claim otra vez.\r\n\r\n    // Constructor\r\n    constructor(IERC20 _tokenV1, IERC20 _tokenV2, uint _rate) {\r\n        tokenV1 = _tokenV1;\r\n        tokenV2 = _tokenV2;\r\n        rate = _rate;\r\n        owner = msg.sender;\r\n    }\r\n\r\n    // Modificadores\r\n    modifier onlyOwner() {\r\n        require(msg.sender == owner, 'Tienes que ser el owner del contrato para ejecutar esta funcion.');\r\n        _;\r\n    }\r\n\r\n    // Funciones\r\n    /**\r\n     * @notice Funcin que activa el cooldown para poder hacer el claim.\r\n     * @param _investor Direccin del inversor.\r\n     */\r\n    function _triggerCooldown(address _investor) internal {\r\n        claimReady[_investor] = block.timestamp + cooldownTime;\r\n    }\r\n\r\n    /**\r\n     * @notice Funcin que nos permite modificar los tokens.\r\n     * @param _tokenV1 Direccin del TokenV1.\r\n     * @param _tokenV2 Direccin del TokenV2.\r\n     */\r\n    function setTokens(IERC20 _tokenV1, IERC20 _tokenV2) public onlyOwner {\r\n        tokenV1 = _tokenV1;\r\n        tokenV2 = _tokenV2;\r\n    }\r\n\r\n    /**\r\n     * @notice Funcin que nos permite modificar el rate.\r\n     * @param _rate % de cuantos TokenV2 equivalen a 1 TokenV1.\r\n     */\r\n    function setRate(uint _rate) public onlyOwner {\r\n        rate = _rate;\r\n    }\r\n\r\n    /**\r\n     * @notice Funcin que nos permite modificar el tiempo de cooldown.\r\n     * @param _cooldownTime Tiempo de cooldown que va a tener el claim.\r\n     */\r\n    function setCooldownTime(uint _cooldownTime) public onlyOwner {\r\n        cooldownTime = _cooldownTime;\r\n    }\r\n\r\n    /**\r\n     * @notice Calculate x * y / scale rounding down.\r\n     * @param x TokenV1.\r\n     * @param y TokenV2.\r\n     * @param scale Divisin.\r\n     */\r\n    function mulScale (uint x, uint y, uint128 scale) internal pure returns (uint) {\r\n        uint a = x / scale;\r\n        uint b = x % scale;\r\n        uint c = y / scale;\r\n        uint d = y % scale;\r\n\r\n        return a * c * scale + a * d + b * c + b * d / scale;\r\n    }\r\n\r\n    /**\r\n     * @notice Funcin que permite hacer swap entre las versiones de los tokens.\r\n     * @param _amount Cantidad de tokens que el usuario enva para el swap.\r\n     */\r\n    function swapVersions(uint _amount) public {\r\n        require(_amount > 0, 'La cantidad para hacer el swap debe ser mayor a 0');\r\n        address _investor = msg.sender;\r\n        require(whitelist[_investor] == true, 'El inversor debe estar dentro de la whitelist.');\r\n        require(swapping == false, 'Ya estas haciendo swap.');\r\n\r\n        swapping = true;\r\n\r\n        uint balanceBefore = tokenV1.balanceOf(address(this));\r\n        tokenV1.transferFrom(_investor, address(this), _amount); // Enva los TokensV1 desde la cuenta del usuario a la del contrato.\r\n        uint balanceAfter = tokenV1.balanceOf(address(this));\r\n        require(balanceAfter > balanceBefore, 'No has enviado ningun token'); // Comprueba que el balance del contrato ha aumentado.\r\n\r\n        // _triggerCooldown(_investor); // Se inicializa el cooldown.\r\n\r\n        uint _tokenV2_2percent = mulScale(tokenV2.totalSupply(), supplyLimit, 10000); // Clcular el x% del total supply del TokenV2\r\n        uint _investorV1Supply = mulScale(tokenV1.balanceOf(_investor), rate, 100); // Calcula el supply de la V2 que tiene en TokensV1.\r\n        uint _investorSupplyBalance = tokenV2.balanceOf(_investor) + balanceV2[_investor] + _investorV1Supply; // Balance del inversor de TokensV2.\r\n        uint _amountToMigrate;\r\n        if(_investorSupplyBalance >= _tokenV2_2percent) {\r\n            _amountToMigrate = mulScale(_amount, supplyLimit, 10000); // La cantidad a devolver con el swap ser del x% del total supply.\r\n        } else {\r\n            _amountToMigrate = mulScale(_amount, rate, 100); // Calcula el monto con el rate.\r\n        }\r\n\r\n        // Aade los TokensV2 al balance de la direccin del inversor dentro de la DApp.\r\n        balanceV2[_investor] += _amountToMigrate;\r\n        tokensSwapped[_investor] = balanceV2[_investor];\r\n        \r\n        swapping = false;\r\n    }\r\n\r\n    /**\r\n     * @notice Funcin que permite hacer claim de los tokens swapeados. Solo permite claimear el\r\n     * 25% de los tokens swapeados 1 vez a la semana.\r\n     */\r\n    function releaseTokens() public {\r\n        address _investor = msg.sender;\r\n        require(whitelist[_investor] == true, 'El inversor debe estar dentro de la whitelist.');\r\n        require(claimReady[_investor] <= block.timestamp, 'Debes esperar 1 semana desde la ultima vez que hiciste claim.');\r\n        require(tokensSwapped[_investor] > 0, 'Debes tener tokens disponibles para retirar.');\r\n        require(tokenV2.balanceOf(address(this)) >= balanceV2[_investor], 'No quedan suficientes TokensV2 en esta cuenta');\r\n        require(claiming == false, 'Ya estas haciendo claim.');\r\n\r\n        claiming = true;\r\n\r\n        if(balanceV2[_investor] > 0) {\r\n            uint withdrawableBalance = mulScale(tokensSwapped[_investor], 2500, 10000); // 2500 basis points = 25%.\r\n\r\n            _triggerCooldown(_investor); // Se vuelve a inicializar el cooldown.\r\n\r\n            tokenV2.transfer(_investor, withdrawableBalance); // Enva los TokensV2 desde la cuenta del contrato a la del usuario.\r\n\r\n            balanceV2[_investor] -= withdrawableBalance;  // Actualiza el balance disponible para retirar del inversor.\r\n        } else {\r\n            tokensSwapped[_investor] = 0; // Resetea el balance del inversor a 0.\r\n        }\r\n\r\n        claiming = false;\r\n    }\r\n\r\n    /**\r\n     * @notice Funcin que permite al dueo del contrato hacer el claim de todos los TokensV1 que hay dentro del contrato.\r\n     */\r\n    function claimV1() public onlyOwner {\r\n        uint _v1amount = tokenV1.balanceOf(address(this));\r\n        require(_v1amount > 0, 'No hay suficiente liquidez.');\r\n        tokenV1.transfer(owner, _v1amount);\r\n    }\r\n\r\n    /**\r\n     * @notice Funcin que permite cambiar el dueo del contrato.\r\n     * @param _owner Direccin del nuevo dueo.\r\n     */\r\n    function setOwner(address _owner) public onlyOwner {\r\n        require(_owner != address(0), 'Debes introducir una direccion correcta.');\r\n        owner = _owner;\r\n    }\r\n\r\n    /**\r\n     * @notice Funcin que permite aadir inversores a la whitelist.\r\n     * @param _investor Direcciones de los inversores que entran en la whitelist.\r\n     */\r\n    function addToWhitelist(address[] memory _investor) public onlyOwner {\r\n        for (uint _i = 0; _i < _investor.length; _i++) {\r\n            require(_investor[_i] != address(0), 'Debes introducir una direccion correcta.');\r\n            address _investorAddress = _investor[_i];\r\n            whitelist[_investorAddress] = true;\r\n        }\r\n    }\r\n\r\n    /**\r\n     * @notice Funcin que permite eliminar inversores de la whitelist.\r\n     * @param _investor Direcciones de los inversores que salen de la whitelist.\r\n     */\r\n    function deleteFromWhitelist(address[] memory _investor) public onlyOwner {\r\n        for (uint _i = 0; _i < _investor.length; _i++) {\r\n            require(_investor[_i] != address(0), 'Debes introducir una direccion correcta.');\r\n            address _investorAddress = _investor[_i];\r\n            whitelist[_investorAddress] = false;\r\n        }\r\n    }\r\n\r\n    /**\r\n     * @notice Funcin que permite cambiar el supplyLimit.\r\n     * @param _supplyLimit % del lmite de supply de los TokensV2 para limitar al usuario.\r\n     */\r\n    function setSupplyLimit(uint _supplyLimit) public onlyOwner {\r\n        supplyLimit = _supplyLimit;\r\n    }\r\n}",
  "sourcePath": "C:\\Users\\Blanko\\Documents\\Santi\\Programming\\Blockchain\\Pruebas\\TokenVersionSwap+Time\\src\\contracts\\Bank.sol",
  "compiler": {
    "name": "solc",
    "version": "0.8.6+commit.11564f7e.Emscripten.clang"
  },
  "schemaVersion": "3.4.2",
  "updatedAt": "2021-09-01T07:36:56.890Z",
  "networkType": "ethereum",
  "devdoc": {
    "kind": "dev",
    "methods": {
      "addToWhitelist(address[])": {
        "params": {
          "_investor": "Direcciones de los inversores que entran en la whitelist."
        }
      },
      "deleteFromWhitelist(address[])": {
        "params": {
          "_investor": "Direcciones de los inversores que salen de la whitelist."
        }
      },
      "setCooldownTime(uint256)": {
        "params": {
          "_cooldownTime": "Tiempo de cooldown que va a tener el claim."
        }
      },
      "setOwner(address)": {
        "params": {
          "_owner": "Direccin del nuevo dueo."
        }
      },
      "setRate(uint256)": {
        "params": {
          "_rate": "% de cuantos TokenV2 equivalen a 1 TokenV1."
        }
      },
      "setSupplyLimit(uint256)": {
        "params": {
          "_supplyLimit": "% del lmite de supply de los TokensV2 para limitar al usuario."
        }
      },
      "setTokens(address,address)": {
        "params": {
          "_tokenV1": "Direccin del TokenV1.",
          "_tokenV2": "Direccin del TokenV2."
        }
      },
      "swapVersions(uint256)": {
        "params": {
          "_amount": "Cantidad de tokens que el usuario enva para el swap."
        }
      }
    },
    "version": 1
  },
  "userdoc": {
    "kind": "user",
    "methods": {
      "addToWhitelist(address[])": {
        "notice": "Funcin que permite aadir inversores a la whitelist."
      },
      "claimV1()": {
        "notice": "Funcin que permite al dueo del contrato hacer el claim de todos los TokensV1 que hay dentro del contrato."
      },
      "deleteFromWhitelist(address[])": {
        "notice": "Funcin que permite eliminar inversores de la whitelist."
      },
      "releaseTokens()": {
        "notice": "Funcin que permite hacer claim de los tokens swapeados. Solo permite claimear el 25% de los tokens swapeados 1 vez a la semana."
      },
      "setCooldownTime(uint256)": {
        "notice": "Funcin que nos permite modificar el tiempo de cooldown."
      },
      "setOwner(address)": {
        "notice": "Funcin que permite cambiar el dueo del contrato."
      },
      "setRate(uint256)": {
        "notice": "Funcin que nos permite modificar el rate."
      },
      "setSupplyLimit(uint256)": {
        "notice": "Funcin que permite cambiar el supplyLimit."
      },
      "setTokens(address,address)": {
        "notice": "Funcin que nos permite modificar los tokens."
      },
      "swapVersions(uint256)": {
        "notice": "Funcin que permite hacer swap entre las versiones de los tokens."
      }
    },
    "version": 1
  }
}