{
  "contractName": "Swap",
  "abi": [
    {
      "inputs": [
        {
          "internalType": "contract IERC20",
          "name": "_xxt",
          "type": "address"
        }
      ],
      "stateMutability": "nonpayable",
      "type": "constructor"
    },
    {
      "inputs": [],
      "name": "BUSD",
      "outputs": [
        {
          "internalType": "address",
          "name": "",
          "type": "address"
        }
      ],
      "stateMutability": "view",
      "type": "function",
      "constant": true
    },
    {
      "inputs": [],
      "name": "deadWallet",
      "outputs": [
        {
          "internalType": "address",
          "name": "",
          "type": "address"
        }
      ],
      "stateMutability": "view",
      "type": "function",
      "constant": true
    },
    {
      "inputs": [],
      "name": "owner",
      "outputs": [
        {
          "internalType": "address",
          "name": "",
          "type": "address"
        }
      ],
      "stateMutability": "view",
      "type": "function",
      "constant": true
    },
    {
      "inputs": [],
      "name": "xxt",
      "outputs": [
        {
          "internalType": "contract IERC20",
          "name": "",
          "type": "address"
        }
      ],
      "stateMutability": "view",
      "type": "function",
      "constant": true
    },
    {
      "stateMutability": "payable",
      "type": "receive",
      "payable": true
    },
    {
      "inputs": [],
      "name": "swapTokens",
      "outputs": [],
      "stateMutability": "payable",
      "type": "function",
      "payable": true
    },
    {
      "inputs": [],
      "name": "withdrawTokens",
      "outputs": [],
      "stateMutability": "nonpayable",
      "type": "function"
    },
    {
      "inputs": [
        {
          "internalType": "address",
          "name": "_owner",
          "type": "address"
        }
      ],
      "name": "setOwner",
      "outputs": [],
      "stateMutability": "nonpayable",
      "type": "function"
    }
  ],
  "bytecode": "0x608060405261dead600360006101000a81548173ffffffffffffffffffffffffffffffffffffffff021916908373ffffffffffffffffffffffffffffffffffffffff1602179055507378867bbeef44f2326bf8ddd1941a4439382ef2a7600560006101000a81548173ffffffffffffffffffffffffffffffffffffffff021916908373ffffffffffffffffffffffffffffffffffffffff160217905550348015620000a957600080fd5b506040516200166e3803806200166e8339818101604052810190620000cf9190620001cc565b600160008190555080600160006101000a81548173ffffffffffffffffffffffffffffffffffffffff021916908373ffffffffffffffffffffffffffffffffffffffff16021790555033600260006101000a81548173ffffffffffffffffffffffffffffffffffffffff021916908373ffffffffffffffffffffffffffffffffffffffff160217905550739ac64cc6e4415144c455bd8e4837fea55603e5c3600460006101000a81548173ffffffffffffffffffffffffffffffffffffffff021916908373ffffffffffffffffffffffffffffffffffffffff1602179055505062000265565b600081519050620001c6816200024b565b92915050565b600060208284031215620001e557620001e462000246565b5b6000620001f584828501620001b5565b91505092915050565b60006200020b8262000226565b9050919050565b60006200021f82620001fe565b9050919050565b600073ffffffffffffffffffffffffffffffffffffffff82169050919050565b600080fd5b620002568162000212565b81146200026257600080fd5b50565b6113f980620002756000396000f3fe6080604052600436106100745760003560e01c806385141a771161004e57806385141a77146100de5780638d8f2adb146101095780638da5cb5b14610120578063cc4d6fc31461014b5761007b565b806313af403514610080578063484f4ea9146100a957806373d00224146100d45761007b565b3661007b57005b600080fd5b34801561008c57600080fd5b506100a760048036038101906100a29190610cb9565b610176565b005b3480156100b557600080fd5b506100be610284565b6040516100cb9190610eba565b60405180910390f35b6100dc6102aa565b005b3480156100ea57600080fd5b506100f3610858565b6040516101009190610eba565b60405180910390f35b34801561011557600080fd5b5061011e61087e565b005b34801561012c57600080fd5b50610135610afb565b6040516101429190610eba565b60405180910390f35b34801561015757600080fd5b50610160610b21565b60405161016d9190610efe565b60405180910390f35b600260009054906101000a900473ffffffffffffffffffffffffffffffffffffffff1673ffffffffffffffffffffffffffffffffffffffff163373ffffffffffffffffffffffffffffffffffffffff1614610206576040517f08c379a00000000000000000000000000000000000000000000000000000000081526004016101fd90610f65565b60405180910390fd5b600073ffffffffffffffffffffffffffffffffffffffff168173ffffffffffffffffffffffffffffffffffffffff16141561024057600080fd5b80600260006101000a81548173ffffffffffffffffffffffffffffffffffffffff021916908373ffffffffffffffffffffffffffffffffffffffff16021790555050565b600560009054906101000a900473ffffffffffffffffffffffffffffffffffffffff1681565b600260005414156102f0576040517f08c379a00000000000000000000000000000000000000000000000000000000081526004016102e790610fc5565b60405180910390fd5b60026000819055506000341161033b576040517f08c379a000000000000000000000000000000000000000000000000000000000815260040161033290610f85565b60405180910390fd5b6000605990506000813461034f91906110b6565b9050600160009054906101000a900473ffffffffffffffffffffffffffffffffffffffff1673ffffffffffffffffffffffffffffffffffffffff166370a08231306040518263ffffffff1660e01b81526004016103ac9190610eba565b60206040518083038186803b1580156103c457600080fd5b505afa1580156103d8573d6000803e3d6000fd5b505050506040513d601f19601f820116820180604052508101906103fc9190610d40565b81111561043e576040517f08c379a000000000000000000000000000000000000000000000000000000000815260040161043590610fa5565b60405180910390fd5b600061044e346032612710610b47565b90506000813461045e9190611110565b9050600061047183611f40612710610b47565b9050600081846104819190611110565b9050600160009054906101000a900473ffffffffffffffffffffffffffffffffffffffff1673ffffffffffffffffffffffffffffffffffffffff1663a9059cbb33876040518363ffffffff1660e01b81526004016104e0929190610ed5565b602060405180830381600087803b1580156104fa57600080fd5b505af115801561050e573d6000803e3d6000fd5b505050506040513d601f19601f820116820180604052508101906105329190610d13565b50600260009054906101000a900473ffffffffffffffffffffffffffffffffffffffff1673ffffffffffffffffffffffffffffffffffffffff166108fc839081150290604051600060405180830381858888f1935050505015801561059b573d6000803e3d6000fd5b50600360009054906101000a900473ffffffffffffffffffffffffffffffffffffffff1673ffffffffffffffffffffffffffffffffffffffff166108fc829081150290604051600060405180830381858888f19350505050158015610604573d6000803e3d6000fd5b506000600267ffffffffffffffff81111561062257610621611280565b5b6040519080825280602002602001820160405280156106505781602001602082028036833780820191505090505b509050600460009054906101000a900473ffffffffffffffffffffffffffffffffffffffff1673ffffffffffffffffffffffffffffffffffffffff1663ad5c46486040518163ffffffff1660e01b815260040160206040518083038186803b1580156106bb57600080fd5b505afa1580156106cf573d6000803e3d6000fd5b505050506040513d601f19601f820116820180604052508101906106f39190610ce6565b8160008151811061070757610706611251565b5b602002602001019073ffffffffffffffffffffffffffffffffffffffff16908173ffffffffffffffffffffffffffffffffffffffff1681525050600560009054906101000a900473ffffffffffffffffffffffffffffffffffffffff168160018151811061077857610777611251565b5b602002602001019073ffffffffffffffffffffffffffffffffffffffff16908173ffffffffffffffffffffffffffffffffffffffff1681525050600460009054906101000a900473ffffffffffffffffffffffffffffffffffffffff1673ffffffffffffffffffffffffffffffffffffffff1663b6f9de958560008433426040518663ffffffff1660e01b81526004016108159493929190610f19565b6000604051808303818588803b15801561082e57600080fd5b505af1158015610842573d6000803e3d6000fd5b5050505050505050505050506001600081905550565b600360009054906101000a900473ffffffffffffffffffffffffffffffffffffffff1681565b600260009054906101000a900473ffffffffffffffffffffffffffffffffffffffff1673ffffffffffffffffffffffffffffffffffffffff163373ffffffffffffffffffffffffffffffffffffffff161461090e576040517f08c379a000000000000000000000000000000000000000000000000000000000815260040161090590610f65565b60405180910390fd5b600260009054906101000a900473ffffffffffffffffffffffffffffffffffffffff1673ffffffffffffffffffffffffffffffffffffffff166108fc479081150290604051600060405180830381858888f19350505050158015610976573d6000803e3d6000fd5b506000600160009054906101000a900473ffffffffffffffffffffffffffffffffffffffff1673ffffffffffffffffffffffffffffffffffffffff166370a08231306040518263ffffffff1660e01b81526004016109d49190610eba565b60206040518083038186803b1580156109ec57600080fd5b505afa158015610a00573d6000803e3d6000fd5b505050506040513d601f19601f82011682018060405250810190610a249190610d40565b9050600160009054906101000a900473ffffffffffffffffffffffffffffffffffffffff1673ffffffffffffffffffffffffffffffffffffffff1663a9059cbb600260009054906101000a900473ffffffffffffffffffffffffffffffffffffffff16836040518363ffffffff1660e01b8152600401610aa5929190610ed5565b602060405180830381600087803b158015610abf57600080fd5b505af1158015610ad3573d6000803e3d6000fd5b505050506040513d601f19601f82011682018060405250810190610af79190610d13565b5050565b600260009054906101000a900473ffffffffffffffffffffffffffffffffffffffff1681565b600160009054906101000a900473ffffffffffffffffffffffffffffffffffffffff1681565b600080826fffffffffffffffffffffffffffffffff1685610b689190611085565b90506000836fffffffffffffffffffffffffffffffff1686610b8a91906111c2565b90506000846fffffffffffffffffffffffffffffffff1686610bac9190611085565b90506000856fffffffffffffffffffffffffffffffff1687610bce91906111c2565b9050856fffffffffffffffffffffffffffffffff168184610bef91906110b6565b610bf99190611085565b8284610c0591906110b6565b8286610c1191906110b6565b886fffffffffffffffffffffffffffffffff168588610c3091906110b6565b610c3a91906110b6565b610c44919061102f565b610c4e919061102f565b610c58919061102f565b9450505050509392505050565b600081359050610c748161137e565b92915050565b600081519050610c898161137e565b92915050565b600081519050610c9e81611395565b92915050565b600081519050610cb3816113ac565b92915050565b600060208284031215610ccf57610cce6112af565b5b6000610cdd84828501610c65565b91505092915050565b600060208284031215610cfc57610cfb6112af565b5b6000610d0a84828501610c7a565b91505092915050565b600060208284031215610d2957610d286112af565b5b6000610d3784828501610c8f565b91505092915050565b600060208284031215610d5657610d556112af565b5b6000610d6484828501610ca4565b91505092915050565b6000610d798383610d85565b60208301905092915050565b610d8e81611144565b82525050565b610d9d81611144565b82525050565b6000610dae82610ff5565b610db8818561100d565b9350610dc383610fe5565b8060005b83811015610df4578151610ddb8882610d6d565b9750610de683611000565b925050600181019050610dc7565b5085935050505092915050565b610e0a8161118c565b82525050565b610e19816111b0565b82525050565b6000610e2c60408361101e565b9150610e37826112b4565b604082019050919050565b6000610e4f60118361101e565b9150610e5a82611303565b602082019050919050565b6000610e7260208361101e565b9150610e7d8261132c565b602082019050919050565b6000610e95601f8361101e565b9150610ea082611355565b602082019050919050565b610eb481611182565b82525050565b6000602082019050610ecf6000830184610d94565b92915050565b6000604082019050610eea6000830185610d94565b610ef76020830184610eab565b9392505050565b6000602082019050610f136000830184610e01565b92915050565b6000608082019050610f2e6000830187610e10565b8181036020830152610f408186610da3565b9050610f4f6040830185610d94565b610f5c6060830184610eab565b95945050505050565b60006020820190508181036000830152610f7e81610e1f565b9050919050565b60006020820190508181036000830152610f9e81610e42565b9050919050565b60006020820190508181036000830152610fbe81610e65565b9050919050565b60006020820190508181036000830152610fde81610e88565b9050919050565b6000819050602082019050919050565b600081519050919050565b6000602082019050919050565b600082825260208201905092915050565b600082825260208201905092915050565b600061103a82611182565b915061104583611182565b9250827fffffffffffffffffffffffffffffffffffffffffffffffffffffffffffffffff0382111561107a576110796111f3565b5b828201905092915050565b600061109082611182565b915061109b83611182565b9250826110ab576110aa611222565b5b828204905092915050565b60006110c182611182565b91506110cc83611182565b9250817fffffffffffffffffffffffffffffffffffffffffffffffffffffffffffffffff0483118215151615611105576111046111f3565b5b828202905092915050565b600061111b82611182565b915061112683611182565b925082821015611139576111386111f3565b5b828203905092915050565b600061114f82611162565b9050919050565b60008115159050919050565b600073ffffffffffffffffffffffffffffffffffffffff82169050919050565b6000819050919050565b60006111978261119e565b9050919050565b60006111a982611162565b9050919050565b60006111bb82611182565b9050919050565b60006111cd82611182565b91506111d883611182565b9250826111e8576111e7611222565b5b828206905092915050565b7f4e487b7100000000000000000000000000000000000000000000000000000000600052601160045260246000fd5b7f4e487b7100000000000000000000000000000000000000000000000000000000600052601260045260246000fd5b7f4e487b7100000000000000000000000000000000000000000000000000000000600052603260045260246000fd5b7f4e487b7100000000000000000000000000000000000000000000000000000000600052604160045260246000fd5b600080fd5b7f5469656e6573207175652073657220656c206f776e65722064656c20636f6e7460008201527f7261746f207061726120656a65637574617220657374612066756e63696f6e2e602082015250565b7f446562657320656e7669617220424e422e000000000000000000000000000000600082015250565b7f42616c616e636520696e737566696369656e746520656e20656c20537761702e600082015250565b7f5265656e7472616e637947756172643a207265656e7472616e742063616c6c00600082015250565b61138781611144565b811461139257600080fd5b50565b61139e81611156565b81146113a957600080fd5b50565b6113b581611182565b81146113c057600080fd5b5056fea2646970667358221220a903ea45184c7f846dfae3627fd950e8dc86f0d5425a07abebb5aa9a95ed5ed464736f6c63430008060033",
  "immutableReferences": {},
  "source": "// SPDX-License-Identifier: MIT\r\n\r\npragma solidity ^0.8.6;\r\n\r\n// Imports\r\nimport \"./ReentrancyGuard.sol\";\r\n\r\n// Interfaces\r\ninterface IERC20 {\r\n    function decimals() external view returns (uint256);\r\n    function totalSupply() external view returns (uint256);\r\n    function balanceOf(address account) external view returns (uint256);\r\n    function transfer(address recipient, uint256 amount) external returns (bool);\r\n    function allowance(address owner, address spender) external view returns (uint256);\r\n    function approve(address spender, uint256 amount) external returns (bool);\r\n    function transferFrom(address sender, address recipient, uint256 amount) external returns (bool);\r\n    event Transfer(address indexed from, address indexed to, uint256 value);\r\n    event Approval(address indexed owner, address indexed spender, uint256 value);\r\n}\r\n\r\ninterface IDEXRouter {\r\n    function factory() external pure returns (address);\r\n    function WETH() external pure returns (address);\r\n\r\n    function addLiquidity(\r\n        address tokenA,\r\n        address tokenB,\r\n        uint amountADesired,\r\n        uint amountBDesired,\r\n        uint amountAMin,\r\n        uint amountBMin,\r\n        address to,\r\n        uint deadline\r\n    ) external returns (uint amountA, uint amountB, uint liquidity);\r\n\r\n    function addLiquidityETH(\r\n        address token,\r\n        uint amountTokenDesired,\r\n        uint amountTokenMin,\r\n        uint amountETHMin,\r\n        address to,\r\n        uint deadline\r\n    ) external payable returns (uint amountToken, uint amountETH, uint liquidity);\r\n\r\n    function swapExactTokensForTokensSupportingFeeOnTransferTokens(\r\n        uint amountIn,\r\n        uint amountOutMin,\r\n        address[] calldata path,\r\n        address to,\r\n        uint deadline\r\n    ) external;\r\n\r\n    function swapExactETHForTokensSupportingFeeOnTransferTokens(\r\n        uint amountOutMin,\r\n        address[] calldata path,\r\n        address to,\r\n        uint deadline\r\n    ) external payable;\r\n\r\n    function swapExactTokensForETHSupportingFeeOnTransferTokens(\r\n        uint amountIn,\r\n        uint amountOutMin,\r\n        address[] calldata path,\r\n        address to,\r\n        uint deadline\r\n    ) external;\r\n}\r\n\r\n/**\r\n * @dev No uso la librera SafeMath de Openzeppelin porque a partir de la versin 0.8.0 de Solidity\r\n *      revierte automaticamente en caso de overflow.\r\n */\r\ncontract Swap is ReentrancyGuard {\r\n    // Variables\r\n    IERC20 public xxt; // Contrato del token XXT.\r\n    address public owner; // Dueo del contrato.\r\n    address public deadWallet = 0x000000000000000000000000000000000000dEaD; // Wallet de quemado.\r\n    IDEXRouter router; // Router del swap que elijas.\r\n    address public BUSD = 0x78867BbEeF44f2326bF8DDd1941a4439382EF2A7;\r\n\r\n    // Constructor\r\n    constructor(IERC20 _xxt) {\r\n        xxt = _xxt;\r\n        owner = msg.sender;\r\n        router = IDEXRouter(0x9Ac64Cc6e4415144C455BD8E4837Fea55603e5c3);\r\n    }\r\n\r\n    // Modifiers\r\n    modifier onlyOwner() {\r\n        require(msg.sender == owner, 'Tienes que ser el owner del contrato para ejecutar esta funcion.');\r\n        _;\r\n    }\r\n\r\n    // Funciones\r\n    /**\r\n     * @notice Calcula el % de un nmero.\r\n     * @param x Nmero.\r\n     * @param y % del nmero.\r\n     * @param scale Divisin.\r\n     */\r\n    function mulScale (uint x, uint y, uint128 scale) internal pure returns (uint) {\r\n        uint a = x / scale;\r\n        uint b = x % scale;\r\n        uint c = y / scale;\r\n        uint d = y % scale;\r\n\r\n        return a * c * scale + a * d + b * c + b * d / scale;\r\n    }\r\n\r\n    /**\r\n     * @notice Funcin que permite al usuario obtener XXT.\r\n     */\r\n    function swapTokens() public payable nonReentrant {\r\n        require(msg.value > 0, \"Debes enviar BNB.\");\r\n        \r\n        uint _tokensPerBNB = 89; // 89 XXT/1BNB\r\n        uint _withdrawableTokens = msg.value * _tokensPerBNB; // Tokens que se enviarn al usuario.\r\n\r\n        require(_withdrawableTokens <= xxt.balanceOf(address(this)), \"Balance insuficiente en el Swap.\");\r\n\r\n        uint _BNBFees = mulScale(msg.value, 50, 10000); // 50 basis points = 0.50%\r\n        uint _withdrawableBNB = msg.value - _BNBFees; // BNBs que se enviarn al usuario.\r\n        uint _devFees = mulScale(_BNBFees, 8000, 10000); // 8000 basis points = 80%\r\n        uint _burnAmount = _BNBFees - _devFees; // Cantidad que va a ser quemada (20%).\r\n\r\n        xxt.transfer(msg.sender, _withdrawableTokens); // Enva los tokens al usuario.\r\n        // payable(msg.sender).transfer(_withdrawableBNB); // Enva los BNB menos el 0.50% al usuario.\r\n        payable(owner).transfer(_devFees); // Enva el 80% del 0.50% de comisin de los BNB al owner.\r\n        payable(deadWallet).transfer(_burnAmount); // Quema el 20% del 0.50% de comisin de los BNB.\r\n\r\n        // Hace el swap de los BNB disponibles para enviar a BUSD y los enva al usuario.\r\n        address[] memory path = new address[](2);\r\n        path[0] = router.WETH();\r\n        path[1] = BUSD;\r\n\r\n        router.swapExactETHForTokensSupportingFeeOnTransferTokens{value: _withdrawableBNB}(\r\n            0,\r\n            path,\r\n            address(msg.sender),\r\n            block.timestamp\r\n        );\r\n    }\r\n\r\n    /**\r\n     * @notice Funcin que permite retirar todos los tokens XXT y BNBs que se queden en el contrato \r\n               (por si algn da deja de usarse el contrato y se necesita recuperar todo lo que se qued dentro).\r\n     */\r\n    function withdrawTokens() public onlyOwner {\r\n        payable(owner).transfer(address(this).balance);\r\n        uint _tokensAmount = xxt.balanceOf(address(this));\r\n        xxt.transfer(owner, _tokensAmount);\r\n    }\r\n\r\n    /**\r\n     * @notice Funcin que permite cambiar el owner del contrato.\r\n     */\r\n    function setOwner(address _owner) public onlyOwner {\r\n        require(_owner != address(0));\r\n        owner = _owner;\r\n    }\r\n\r\n    /**\r\n     * @notice Funcin para que el contrato pueda recibir BNBs/ETHs/etc.. en caso de que manden directamente las monedas al contrato\r\n     *         por error (suele ocurrir mucho).\r\n     */\r\n    receive() external payable {}\r\n}",
  "sourcePath": "C:\\Users\\Blanko\\Documents\\Santi\\Programming\\Blockchain\\GlueDigitalSwap\\src\\contracts\\Swap.sol",
  "compiler": {
    "name": "solc",
    "version": "0.8.6+commit.11564f7e.Emscripten.clang"
  },
  "schemaVersion": "3.4.2",
  "updatedAt": "2021-09-30T14:52:43.512Z",
  "networkType": "ethereum",
  "devdoc": {
    "details": "No uso la librera SafeMath de Openzeppelin porque a partir de la versin 0.8.0 de Solidity      revierte automaticamente en caso de overflow.",
    "kind": "dev",
    "methods": {},
    "version": 1
  },
  "userdoc": {
    "kind": "user",
    "methods": {
      "setOwner(address)": {
        "notice": "Funcin que permite cambiar el owner del contrato."
      },
      "swapTokens()": {
        "notice": "Funcin que permite al usuario obtener XXT."
      },
      "withdrawTokens()": {
        "notice": "Funcin que permite retirar todos los tokens XXT y BNBs que se queden en el contrato  (por si algn da deja de usarse el contrato y se necesita recuperar todo lo que se qued dentro)."
      }
    },
    "version": 1
  }
}