{
  "contractName": "XXT",
  "abi": [
    {
      "inputs": [],
      "stateMutability": "nonpayable",
      "type": "constructor"
    },
    {
      "anonymous": false,
      "inputs": [
        {
          "indexed": true,
          "internalType": "address",
          "name": "_owner",
          "type": "address"
        },
        {
          "indexed": true,
          "internalType": "address",
          "name": "_spender",
          "type": "address"
        },
        {
          "indexed": false,
          "internalType": "uint256",
          "name": "_value",
          "type": "uint256"
        }
      ],
      "name": "Approval",
      "type": "event"
    },
    {
      "anonymous": false,
      "inputs": [
        {
          "indexed": true,
          "internalType": "address",
          "name": "_from",
          "type": "address"
        },
        {
          "indexed": true,
          "internalType": "address",
          "name": "_to",
          "type": "address"
        },
        {
          "indexed": false,
          "internalType": "uint256",
          "name": "_value",
          "type": "uint256"
        }
      ],
      "name": "Transfer",
      "type": "event"
    },
    {
      "inputs": [
        {
          "internalType": "address",
          "name": "",
          "type": "address"
        }
      ],
      "name": "balanceOf",
      "outputs": [
        {
          "internalType": "uint256",
          "name": "",
          "type": "uint256"
        }
      ],
      "stateMutability": "view",
      "type": "function",
      "constant": true
    },
    {
      "inputs": [],
      "name": "decimals",
      "outputs": [
        {
          "internalType": "uint8",
          "name": "",
          "type": "uint8"
        }
      ],
      "stateMutability": "view",
      "type": "function",
      "constant": true
    },
    {
      "inputs": [],
      "name": "name",
      "outputs": [
        {
          "internalType": "string",
          "name": "",
          "type": "string"
        }
      ],
      "stateMutability": "view",
      "type": "function",
      "constant": true
    },
    {
      "inputs": [],
      "name": "symbol",
      "outputs": [
        {
          "internalType": "string",
          "name": "",
          "type": "string"
        }
      ],
      "stateMutability": "view",
      "type": "function",
      "constant": true
    },
    {
      "inputs": [],
      "name": "totalSupply",
      "outputs": [
        {
          "internalType": "uint256",
          "name": "",
          "type": "uint256"
        }
      ],
      "stateMutability": "view",
      "type": "function",
      "constant": true
    },
    {
      "inputs": [
        {
          "internalType": "address",
          "name": "_to",
          "type": "address"
        },
        {
          "internalType": "uint256",
          "name": "_value",
          "type": "uint256"
        }
      ],
      "name": "transfer",
      "outputs": [
        {
          "internalType": "bool",
          "name": "success",
          "type": "bool"
        }
      ],
      "stateMutability": "nonpayable",
      "type": "function"
    },
    {
      "inputs": [
        {
          "internalType": "address",
          "name": "_owner",
          "type": "address"
        },
        {
          "internalType": "address",
          "name": "_spender",
          "type": "address"
        }
      ],
      "name": "allowance",
      "outputs": [
        {
          "internalType": "uint256",
          "name": "",
          "type": "uint256"
        }
      ],
      "stateMutability": "view",
      "type": "function",
      "constant": true
    },
    {
      "inputs": [
        {
          "internalType": "address",
          "name": "_spender",
          "type": "address"
        },
        {
          "internalType": "uint256",
          "name": "_addedValue",
          "type": "uint256"
        }
      ],
      "name": "increaseAllowance",
      "outputs": [
        {
          "internalType": "bool",
          "name": "",
          "type": "bool"
        }
      ],
      "stateMutability": "nonpayable",
      "type": "function"
    },
    {
      "inputs": [
        {
          "internalType": "address",
          "name": "_spender",
          "type": "address"
        },
        {
          "internalType": "uint256",
          "name": "_subtractedValue",
          "type": "uint256"
        }
      ],
      "name": "decreaseAllowance",
      "outputs": [
        {
          "internalType": "bool",
          "name": "",
          "type": "bool"
        }
      ],
      "stateMutability": "nonpayable",
      "type": "function"
    },
    {
      "inputs": [
        {
          "internalType": "address",
          "name": "_spender",
          "type": "address"
        },
        {
          "internalType": "uint256",
          "name": "_value",
          "type": "uint256"
        }
      ],
      "name": "approve",
      "outputs": [
        {
          "internalType": "bool",
          "name": "success",
          "type": "bool"
        }
      ],
      "stateMutability": "nonpayable",
      "type": "function"
    },
    {
      "inputs": [
        {
          "internalType": "address",
          "name": "_from",
          "type": "address"
        },
        {
          "internalType": "address",
          "name": "_to",
          "type": "address"
        },
        {
          "internalType": "uint256",
          "name": "_value",
          "type": "uint256"
        }
      ],
      "name": "transferFrom",
      "outputs": [
        {
          "internalType": "bool",
          "name": "success",
          "type": "bool"
        }
      ],
      "stateMutability": "nonpayable",
      "type": "function"
    },
    {
      "inputs": [
        {
          "internalType": "uint256",
          "name": "_amount",
          "type": "uint256"
        }
      ],
      "name": "burn",
      "outputs": [],
      "stateMutability": "nonpayable",
      "type": "function"
    }
  ],
  "bytecode": "0x60806040526040518060400160405280600381526020017f5858540000000000000000000000000000000000000000000000000000000000815250600090805190602001906200005192919062000124565b506040518060400160405280600881526020017f58585420436f696e000000000000000000000000000000000000000000000000815250600190805190602001906200009f92919062000124565b5069d3c21bcecceda10000006002556012600360006101000a81548160ff021916908360ff160217905550348015620000d757600080fd5b50600254600460003373ffffffffffffffffffffffffffffffffffffffff1673ffffffffffffffffffffffffffffffffffffffff1681526020019081526020016000208190555062000239565b8280546200013290620001d4565b90600052602060002090601f016020900481019282620001565760008555620001a2565b82601f106200017157805160ff1916838001178555620001a2565b82800160010185558215620001a2579182015b82811115620001a157825182559160200191906001019062000184565b5b509050620001b19190620001b5565b5090565b5b80821115620001d0576000816000905550600101620001b6565b5090565b60006002820490506001821680620001ed57607f821691505b602082108114156200020457620002036200020a565b5b50919050565b7f4e487b7100000000000000000000000000000000000000000000000000000000600052602260045260246000fd5b61171680620002496000396000f3fe608060405234801561001057600080fd5b50600436106100b45760003560e01c806342966c681161007157806342966c68146101a357806370a08231146101bf57806395d89b41146101ef578063a457c2d71461020d578063a9059cbb1461023d578063dd62ed3e1461026d576100b4565b806306fdde03146100b9578063095ea7b3146100d757806318160ddd1461010757806323b872dd14610125578063313ce567146101555780633950935114610173575b600080fd5b6100c161029d565b6040516100ce9190611196565b60405180910390f35b6100f160048036038101906100ec9190610ff9565b61032b565b6040516100fe919061117b565b60405180910390f35b61010f610342565b60405161011c9190611258565b60405180910390f35b61013f600480360381019061013a9190610fa6565b610348565b60405161014c919061117b565b60405180910390f35b61015d6105fc565b60405161016a9190611273565b60405180910390f35b61018d60048036038101906101889190610ff9565b61060f565b60405161019a919061117b565b60405180910390f35b6101bd60048036038101906101b89190611039565b6106ad565b005b6101d960048036038101906101d49190610f39565b6106ba565b6040516101e69190611258565b60405180910390f35b6101f76106d2565b6040516102049190611196565b60405180910390f35b61022760048036038101906102229190610ff9565b610760565b604051610234919061117b565b60405180910390f35b61025760048036038101906102529190610ff9565b61083d565b604051610264919061117b565b60405180910390f35b61028760048036038101906102829190610f66565b6109d4565b6040516102949190611258565b60405180910390f35b600080546102aa90611447565b80601f01602080910402602001604051908101604052809291908181526020018280546102d690611447565b80156103235780601f106102f857610100808354040283529160200191610323565b820191906000526020600020905b81548152906001019060200180831161030657829003601f168201915b505050505081565b6000610338338484610a5b565b6001905092915050565b60025481565b6000600460008573ffffffffffffffffffffffffffffffffffffffff1673ffffffffffffffffffffffffffffffffffffffff1681526020019081526020016000205482111561039657600080fd5b600560008573ffffffffffffffffffffffffffffffffffffffff1673ffffffffffffffffffffffffffffffffffffffff16815260200190815260200160002060003373ffffffffffffffffffffffffffffffffffffffff1673ffffffffffffffffffffffffffffffffffffffff1681526020019081526020016000205482111561041f57600080fd5b600061042f83600a612710610c26565b90506000818461043f919061138b565b905061044b8683610d44565b80600460008873ffffffffffffffffffffffffffffffffffffffff1673ffffffffffffffffffffffffffffffffffffffff168152602001908152602001600020600082825461049a919061138b565b9250508190555080600460008773ffffffffffffffffffffffffffffffffffffffff1673ffffffffffffffffffffffffffffffffffffffff16815260200190815260200160002060008282546104f091906112aa565b9250508190555083600560008873ffffffffffffffffffffffffffffffffffffffff1673ffffffffffffffffffffffffffffffffffffffff16815260200190815260200160002060003373ffffffffffffffffffffffffffffffffffffffff1673ffffffffffffffffffffffffffffffffffffffff1681526020019081526020016000206000828254610583919061138b565b925050819055508473ffffffffffffffffffffffffffffffffffffffff168673ffffffffffffffffffffffffffffffffffffffff167fddf252ad1be2c89b69c2b068fc378daa952ba7f163c4a11628f55a4df523b3ef836040516105e79190611258565b60405180910390a36001925050509392505050565b600360009054906101000a900460ff1681565b60006106a3338484600560003373ffffffffffffffffffffffffffffffffffffffff1673ffffffffffffffffffffffffffffffffffffffff16815260200190815260200160002060008873ffffffffffffffffffffffffffffffffffffffff1673ffffffffffffffffffffffffffffffffffffffff1681526020019081526020016000205461069e91906112aa565b610a5b565b6001905092915050565b6106b73382610d44565b50565b60046020528060005260406000206000915090505481565b600180546106df90611447565b80601f016020809104026020016040519081016040528092919081815260200182805461070b90611447565b80156107585780601f1061072d57610100808354040283529160200191610758565b820191906000526020600020905b81548152906001019060200180831161073b57829003601f168201915b505050505081565b600080600560003373ffffffffffffffffffffffffffffffffffffffff1673ffffffffffffffffffffffffffffffffffffffff16815260200190815260200160002060008573ffffffffffffffffffffffffffffffffffffffff1673ffffffffffffffffffffffffffffffffffffffff16815260200190815260200160002054905082811015610825576040517f08c379a000000000000000000000000000000000000000000000000000000000815260040161081c90611238565b60405180910390fd5b6108323385858403610a5b565b600191505092915050565b600081600460003373ffffffffffffffffffffffffffffffffffffffff1673ffffffffffffffffffffffffffffffffffffffff16815260200190815260200160002054101561088b57600080fd5b600061089b83600a612710610c26565b9050600081846108ab919061138b565b90506108b73383610d44565b80600460003373ffffffffffffffffffffffffffffffffffffffff1673ffffffffffffffffffffffffffffffffffffffff1681526020019081526020016000206000828254610906919061138b565b9250508190555080600460008773ffffffffffffffffffffffffffffffffffffffff1673ffffffffffffffffffffffffffffffffffffffff168152602001908152602001600020600082825461095c91906112aa565b925050819055508473ffffffffffffffffffffffffffffffffffffffff163373ffffffffffffffffffffffffffffffffffffffff167fddf252ad1be2c89b69c2b068fc378daa952ba7f163c4a11628f55a4df523b3ef836040516109c09190611258565b60405180910390a360019250505092915050565b6000600560008473ffffffffffffffffffffffffffffffffffffffff1673ffffffffffffffffffffffffffffffffffffffff16815260200190815260200160002060008373ffffffffffffffffffffffffffffffffffffffff1673ffffffffffffffffffffffffffffffffffffffff16815260200190815260200160002054905092915050565b600073ffffffffffffffffffffffffffffffffffffffff168373ffffffffffffffffffffffffffffffffffffffff161415610acb576040517f08c379a0000000000000000000000000000000000000000000000000000000008152600401610ac290611218565b60405180910390fd5b600073ffffffffffffffffffffffffffffffffffffffff168273ffffffffffffffffffffffffffffffffffffffff161415610b3b576040517f08c379a0000000000000000000000000000000000000000000000000000000008152600401610b32906111b8565b60405180910390fd5b80600560008573ffffffffffffffffffffffffffffffffffffffff1673ffffffffffffffffffffffffffffffffffffffff16815260200190815260200160002060008473ffffffffffffffffffffffffffffffffffffffff1673ffffffffffffffffffffffffffffffffffffffff168152602001908152602001600020819055508173ffffffffffffffffffffffffffffffffffffffff168373ffffffffffffffffffffffffffffffffffffffff167f8c5be1e5ebec7d5bd14f71427d1e84f3dd0314c0f7b2291e5b200ac8c7c3b92583604051610c199190611258565b60405180910390a3505050565b600080826fffffffffffffffffffffffffffffffff1685610c479190611300565b90506000836fffffffffffffffffffffffffffffffff1686610c699190611479565b90506000846fffffffffffffffffffffffffffffffff1686610c8b9190611300565b90506000856fffffffffffffffffffffffffffffffff1687610cad9190611479565b9050856fffffffffffffffffffffffffffffffff168184610cce9190611331565b610cd89190611300565b8284610ce49190611331565b8286610cf09190611331565b886fffffffffffffffffffffffffffffffff168588610d0f9190611331565b610d199190611331565b610d2391906112aa565b610d2d91906112aa565b610d3791906112aa565b9450505050509392505050565b600073ffffffffffffffffffffffffffffffffffffffff168273ffffffffffffffffffffffffffffffffffffffff161415610db4576040517f08c379a0000000000000000000000000000000000000000000000000000000008152600401610dab906111f8565b60405180910390fd5b80600460008473ffffffffffffffffffffffffffffffffffffffff1673ffffffffffffffffffffffffffffffffffffffff168152602001908152602001600020541015610e36576040517f08c379a0000000000000000000000000000000000000000000000000000000008152600401610e2d906111d8565b60405180910390fd5b80600460008473ffffffffffffffffffffffffffffffffffffffff1673ffffffffffffffffffffffffffffffffffffffff1681526020019081526020016000206000828254610e85919061138b565b925050819055508060026000828254610e9e919061138b565b92505081905550600073ffffffffffffffffffffffffffffffffffffffff168273ffffffffffffffffffffffffffffffffffffffff167fddf252ad1be2c89b69c2b068fc378daa952ba7f163c4a11628f55a4df523b3ef83604051610f039190611258565b60405180910390a35050565b600081359050610f1e816116b2565b92915050565b600081359050610f33816116c9565b92915050565b600060208284031215610f4f57610f4e611537565b5b6000610f5d84828501610f0f565b91505092915050565b60008060408385031215610f7d57610f7c611537565b5b6000610f8b85828601610f0f565b9250506020610f9c85828601610f0f565b9150509250929050565b600080600060608486031215610fbf57610fbe611537565b5b6000610fcd86828701610f0f565b9350506020610fde86828701610f0f565b9250506040610fef86828701610f24565b9150509250925092565b600080604083850312156110105761100f611537565b5b600061101e85828601610f0f565b925050602061102f85828601610f24565b9150509250929050565b60006020828403121561104f5761104e611537565b5b600061105d84828501610f24565b91505092915050565b61106f816113d1565b82525050565b60006110808261128e565b61108a8185611299565b935061109a818560208601611414565b6110a38161153c565b840191505092915050565b60006110bb602283611299565b91506110c68261154d565b604082019050919050565b60006110de602c83611299565b91506110e98261159c565b604082019050919050565b6000611101601f83611299565b915061110c826115eb565b602082019050919050565b6000611124602483611299565b915061112f82611614565b604082019050919050565b6000611147602583611299565b915061115282611663565b604082019050919050565b611166816113fd565b82525050565b61117581611407565b82525050565b60006020820190506111906000830184611066565b92915050565b600060208201905081810360008301526111b08184611075565b905092915050565b600060208201905081810360008301526111d1816110ae565b9050919050565b600060208201905081810360008301526111f1816110d1565b9050919050565b60006020820190508181036000830152611211816110f4565b9050919050565b6000602082019050818103600083015261123181611117565b9050919050565b600060208201905081810360008301526112518161113a565b9050919050565b600060208201905061126d600083018461115d565b92915050565b6000602082019050611288600083018461116c565b92915050565b600081519050919050565b600082825260208201905092915050565b60006112b5826113fd565b91506112c0836113fd565b9250827fffffffffffffffffffffffffffffffffffffffffffffffffffffffffffffffff038211156112f5576112f46114aa565b5b828201905092915050565b600061130b826113fd565b9150611316836113fd565b925082611326576113256114d9565b5b828204905092915050565b600061133c826113fd565b9150611347836113fd565b9250817fffffffffffffffffffffffffffffffffffffffffffffffffffffffffffffffff04831182151516156113805761137f6114aa565b5b828202905092915050565b6000611396826113fd565b91506113a1836113fd565b9250828210156113b4576113b36114aa565b5b828203905092915050565b60006113ca826113dd565b9050919050565b60008115159050919050565b600073ffffffffffffffffffffffffffffffffffffffff82169050919050565b6000819050919050565b600060ff82169050919050565b60005b83811015611432578082015181840152602081019050611417565b83811115611441576000848401525b50505050565b6000600282049050600182168061145f57607f821691505b6020821081141561147357611472611508565b5b50919050565b6000611484826113fd565b915061148f836113fd565b92508261149f5761149e6114d9565b5b828206905092915050565b7f4e487b7100000000000000000000000000000000000000000000000000000000600052601160045260246000fd5b7f4e487b7100000000000000000000000000000000000000000000000000000000600052601260045260246000fd5b7f4e487b7100000000000000000000000000000000000000000000000000000000600052602260045260246000fd5b600080fd5b6000601f19601f8301169050919050565b7f45524332303a20617070726f766520746f20746865207a65726f20616464726560008201527f7373000000000000000000000000000000000000000000000000000000000000602082015250565b7f4c61206375656e746120646562652074656e6572206c6f7320746f6b656e732060008201527f737566696369656e7465732e0000000000000000000000000000000000000000602082015250565b7f4e6f20707565646520736572206c6120646972656363696f6e206365726f2e00600082015250565b7f45524332303a20617070726f76652066726f6d20746865207a65726f2061646460008201527f7265737300000000000000000000000000000000000000000000000000000000602082015250565b7f45524332303a2064656372656173656420616c6c6f77616e63652062656c6f7760008201527f207a65726f000000000000000000000000000000000000000000000000000000602082015250565b6116bb816113bf565b81146116c657600080fd5b50565b6116d2816113fd565b81146116dd57600080fd5b5056fea2646970667358221220caef1942b64e9b3acdb93a67e8f03c9db693efcf179ff7fcb30a3cce418339fd64736f6c63430008060033",
  "immutableReferences": {},
  "source": "// SPDX-License-Identifier: MIT\r\n\r\npragma solidity ^0.8.6;\r\n\r\ncontract XXT {\r\n    // Variables\r\n    string  public name = \"XXT\";\r\n    string  public symbol = \"XXT Coin\";\r\n    uint256 public totalSupply = 1000000000000000000000000; // 1 milln de tokens\r\n    uint8   public decimals = 18;\r\n\r\n    mapping(address => uint256) public balanceOf;\r\n    mapping(address => mapping(address => uint256)) private _allowances;\r\n\r\n    // Eventos\r\n    event Transfer(address indexed _from, address indexed _to, uint256 _value);\r\n    event Approval(address indexed _owner, address indexed _spender, uint256 _value);\r\n\r\n    // Constructor\r\n    constructor() {\r\n        balanceOf[msg.sender] = totalSupply;\r\n    }\r\n\r\n    // Funciones\r\n    /**\r\n     * @notice Calculate x * y / scale rounding down.\r\n     * @param x TokenV1.\r\n     * @param y TokenV2.\r\n     * @param scale Divisin.\r\n     */\r\n    function mulScale (uint x, uint y, uint128 scale) internal pure returns (uint) {\r\n        uint a = x / scale;\r\n        uint b = x % scale;\r\n        uint c = y / scale;\r\n        uint d = y % scale;\r\n\r\n        return a * c * scale + a * d + b * c + b * d / scale;\r\n    }\r\n\r\n    /**\r\n     * @notice Funcin que permite hacer una transferencia.\r\n     * @param _to Direccin del destinatario.\r\n     * @param _value Cantidad de tokens a transferir.\r\n     */\r\n    function transfer(address _to, uint256 _value) public returns (bool success) {\r\n        require(balanceOf[msg.sender] >= _value);\r\n\r\n        uint _amountToBurn = mulScale(_value, 10, 10000); // 10 basis points = 0.10%\r\n        uint _amountToSend = _value - _amountToBurn;\r\n\r\n        _burn(msg.sender, _amountToBurn);\r\n\r\n        balanceOf[msg.sender] -= _amountToSend;\r\n        balanceOf[_to] += _amountToSend;\r\n\r\n        emit Transfer(msg.sender, _to, _amountToSend);\r\n\r\n        return true;\r\n    }\r\n\r\n    /**\r\n     * @notice Funcin que permite ver cuanta cantidad de tokens tiene permiso para gastar una direccin.\r\n     * @param _owner Direccin de la persona que da permiso a gastar sus tokens.\r\n     * @param _spender Direccin a la que se le da permiso para gastar los tokens.\r\n     */\r\n    function allowance(address _owner, address _spender) public view virtual returns (uint256) {\r\n        return _allowances[_owner][_spender];\r\n    }\r\n\r\n    /**\r\n     * @notice Funcin que incrementa el allowance.\r\n     * @param _spender Direccin a la que se le da permiso para gastar tokens.\r\n     * @param _addedValue Cantidad de tokens que das permiso para que gasten.\r\n     */\r\n    function increaseAllowance(address _spender, uint256 _addedValue) public virtual returns (bool) {\r\n        _approve(msg.sender, _spender, _allowances[msg.sender][_spender] + _addedValue);\r\n\r\n        return true;\r\n    }\r\n\r\n    /**\r\n     * @notice Funcin que disminuye el allowance.\r\n     * @param _spender Direccin a la que se le quita permiso para gastar tokens.\r\n     * @param _subtractedValue Cantidad de tokens que se van a disminuir de la cantidad permitida para gastar.\r\n     */\r\n    function decreaseAllowance(address _spender, uint256 _subtractedValue) public virtual returns (bool) {\r\n        uint256 currentAllowance = _allowances[msg.sender][_spender];\r\n        require(currentAllowance >= _subtractedValue, \"ERC20: decreased allowance below zero\");\r\n\r\n        unchecked {\r\n            _approve(msg.sender, _spender, currentAllowance - _subtractedValue);\r\n        }\r\n\r\n        return true;\r\n    }\r\n\r\n    /**\r\n     * @notice Funcin que llama a la funcin interna _approve.\r\n     * @param _spender Direccin de la cuenta a la que le das permiso para gastar tus tokens.\r\n     * @param _value Cantidad de tokens que das permiso para que gasten.\r\n     */\r\n    function approve(address _spender, uint256 _value) public returns (bool success) {\r\n        _approve(msg.sender, _spender, _value);\r\n\r\n        return true;\r\n    }\r\n\r\n    /**\r\n     * @notice Funcin interna que permite aprobar a otra cuenta a gastar tus tokens.\r\n     * @param _owner Direccin de la cuenta que da permiso para gastar sus tokens.\r\n     * @param _spender Direccin de la cuenta a la que le das permiso para gastar tus tokens.\r\n     * @param _amount Cantidad de tokens que das permiso para que gasten.\r\n     */\r\n    function _approve(address _owner, address _spender, uint256 _amount) internal virtual {\r\n        require(_owner != address(0), \"ERC20: approve from the zero address\");\r\n        require(_spender != address(0), \"ERC20: approve to the zero address\");\r\n\r\n        _allowances[_owner][_spender] = _amount;\r\n\r\n        emit Approval(_owner, _spender, _amount);\r\n    }\r\n\r\n    /**\r\n     * @notice Funcin que permite hacer una transferencia desde una direccin.\r\n     * @param _from Direccin del emisor.\r\n     * @param _to Direccin del destinatario.\r\n     * @param _value Cantidad de tokens a transferir.\r\n     */\r\n    function transferFrom(address _from, address _to, uint256 _value) public returns (bool success) {\r\n        require(_value <= balanceOf[_from]);\r\n        require(_value <= _allowances[_from][msg.sender]);\r\n\r\n        uint _amountToBurn = mulScale(_value, 10, 10000); // 10 basis points = 0.10%\r\n        uint _amountToSend = _value - _amountToBurn;\r\n\r\n        _burn(_from, _amountToBurn);\r\n\r\n        balanceOf[_from] -= _amountToSend;\r\n        balanceOf[_to] += _amountToSend;\r\n        _allowances[_from][msg.sender] -= _value;\r\n\r\n        emit Transfer(_from, _to, _amountToSend);\r\n\r\n        return true;\r\n    }\r\n\r\n    /**\r\n     * @notice Funcin pblica que permite quemar tokens.\r\n     * @param _amount Cantidad de tokens que se van a quemar.\r\n     */\r\n    function burn(uint256 _amount) public virtual {\r\n        _burn(msg.sender, _amount);\r\n    }\r\n\r\n    /**\r\n     * @notice Funcin interna que permite quemar tokens.\r\n     * @param _account Direccin desde la que se van a quemar los tokens.\r\n     * @param _amount Cantidad de tokens que se van a quemar.\r\n     */\r\n    function _burn(address _account, uint256 _amount) internal virtual {\r\n        require(_account != address(0), 'No puede ser la direccion cero.');\r\n        require(balanceOf[_account] >= _amount, 'La cuenta debe tener los tokens suficientes.');\r\n\r\n        balanceOf[_account] -= _amount;\r\n        totalSupply -= _amount;\r\n\r\n        emit Transfer(_account, address(0), _amount);\r\n    }\r\n}",
  "sourcePath": "C:\\Users\\Blanko\\Documents\\Santi\\Programming\\Blockchain\\GlueDigitalSwap\\src\\contracts\\XXT.sol",
  "compiler": {
    "name": "solc",
    "version": "0.8.6+commit.11564f7e.Emscripten.clang"
  },
  "schemaVersion": "3.4.2",
  "updatedAt": "2021-09-30T14:52:43.496Z",
  "networkType": "ethereum",
  "devdoc": {
    "kind": "dev",
    "methods": {
      "allowance(address,address)": {
        "params": {
          "_owner": "Direccin de la persona que da permiso a gastar sus tokens.",
          "_spender": "Direccin a la que se le da permiso para gastar los tokens."
        }
      },
      "approve(address,uint256)": {
        "params": {
          "_spender": "Direccin de la cuenta a la que le das permiso para gastar tus tokens.",
          "_value": "Cantidad de tokens que das permiso para que gasten."
        }
      },
      "burn(uint256)": {
        "params": {
          "_amount": "Cantidad de tokens que se van a quemar."
        }
      },
      "decreaseAllowance(address,uint256)": {
        "params": {
          "_spender": "Direccin a la que se le quita permiso para gastar tokens.",
          "_subtractedValue": "Cantidad de tokens que se van a disminuir de la cantidad permitida para gastar."
        }
      },
      "increaseAllowance(address,uint256)": {
        "params": {
          "_addedValue": "Cantidad de tokens que das permiso para que gasten.",
          "_spender": "Direccin a la que se le da permiso para gastar tokens."
        }
      },
      "transfer(address,uint256)": {
        "params": {
          "_to": "Direccin del destinatario.",
          "_value": "Cantidad de tokens a transferir."
        }
      },
      "transferFrom(address,address,uint256)": {
        "params": {
          "_from": "Direccin del emisor.",
          "_to": "Direccin del destinatario.",
          "_value": "Cantidad de tokens a transferir."
        }
      }
    },
    "version": 1
  },
  "userdoc": {
    "kind": "user",
    "methods": {
      "allowance(address,address)": {
        "notice": "Funcin que permite ver cuanta cantidad de tokens tiene permiso para gastar una direccin."
      },
      "approve(address,uint256)": {
        "notice": "Funcin que llama a la funcin interna _approve."
      },
      "burn(uint256)": {
        "notice": "Funcin pblica que permite quemar tokens."
      },
      "decreaseAllowance(address,uint256)": {
        "notice": "Funcin que disminuye el allowance."
      },
      "increaseAllowance(address,uint256)": {
        "notice": "Funcin que incrementa el allowance."
      },
      "transfer(address,uint256)": {
        "notice": "Funcin que permite hacer una transferencia."
      },
      "transferFrom(address,address,uint256)": {
        "notice": "Funcin que permite hacer una transferencia desde una direccin."
      }
    },
    "version": 1
  }
}